:1000000018C01FC01EC01DC01CC01BC01AC019C014
:1000100018C017C016C015C014C013C012C07BC0D2
:100020006AC06BC06CC076C06EC06AC06BC06EC068
:100030006CC011241FBECFE5D2E0DEBFCDBF6DD0B6
:100040007DC0DECFEF92FF920F93CF937C01C0E390
:10005000CF5FCA3391F002E024E040E168E08C2FEA
:100060003BD028E030E02150310991F383ED90E35B
:100070000197F1F700C00000F6CF87E490E0F701A8
:1000800091838083CF910F91FF90EF900895EF922D
:10009000FF920F93CF937C01C9E3C150CF3291F00F
:1000A00002E024E040E168E08C2F16D028E030E048
:1000B0002150310991F383ED90E30197F1F700C0EE
:1000C0000000F6CF82E290E0F70191838083CF9128
:1000D0000F91FF90EF9008950F93082E000C990B4D
:1000E000AA0BBB0BFC01F097EA30F10588F4E15F45
:1000F000FF4F18BA099468BB0EC048BB0CC0262F2E
:10010000242B08C0242B262B05C0062B08BB03C0BC
:1001100018BA202B28BB0F910895CF93DF9300D0FE
:10012000CDB7DEB78EE187BB82E290E09A83898308
:10013000E981FA81CE0101960995FACFF894FFCFB3
:00000001FF
